:060000000A128A11122809
:10000800FE00030EF7000408F8000A08F90083123E
:1000180003137F08FA000A128A15022C0A128A11A1
:100028001528FC0183134230840063300A128A15B4
:1000380025210A128A11CF308400F0300A128A155D
:1000480025210A128A1183160317A90183179F30E5
:10005800FD000930FE007130FF00903084000A1264
:100068008A15952183010A128A113A28453084009D
:10007800903083160317A5000408A6000F30A700C8
:100088002508840083170008A800A50A260884000C
:1000980028088000A60AA70B442883120317D40156
:1000A80083120317DA010F305A0203186C285A0812
:1000B800453E840083178001013083160317A5008D
:1000C800250883120317DA070F305A02031C5B282E
:1000D8000A128A1562210A128A110F308316031335
:1000E8008500073089008312031386170D308316A5
:1000F8000317A700AF30A600C130A500A50B8228C2
:10010800A60B8228A70B82280000831203138613EC
:100118000D3083160317A700AF30A600C130A50025
:10012800A50B9428A60B9428A70B942800000A1264
:100138008A1547210A128A1100300A128A15C1222B
:100148000A128A11932C4C3083160317A500250830
:1001580083120317C500803083160317A5002508EE
:1001680083120317DE005E080A128A151F260A1278
:100178008A11831603133C0883120317DB008316C6
:1001880003133D0883120317DC00831603133E088C
:1001980083120317DD005B0883160313CC00831258
:1001A80003175C0883160313CD00831203175D0839
:1001B80083160313CE000A128A1160270A128A11C5
:1001C800831603134C0883120317B1008316031315
:1001D8004D0883120317B200831603134E088312C7
:1001E8000317B300310883160313A0008312031703
:1001F800320883160313A1008312031733088316EA
:100208000313A2000A128A11D2260A128A1183162F
:100218000313200883160317A50025088312031764
:10022800DF005F0883160317A5002508831603134C
:10023800BA0055300A128A15F1240A128A1183125B
:100248000317DA0105305A02031849295A08553E9E
:100258008400831700080A128A153A210A128A11A3
:10026800831203175A08553E8400831700080319A0
:100278004929013083160317A5002508831203179F
:10028800DA0705305A02031C2A2955088316031772
:10029800A500250883120317C600560883160317FE
:1002A800A500250883120317C70088308316031793
:1002B800A500250883120317DE005E080A128A15B6
:1002C8001F260A128A11831603133C088312031788
:1002D800DB00831603133D0883120317DC00831623
:1002E80003133E0883120317DD005B08831603130C
:1002F800CC00831203175C0883160313CD00831206
:1003080003175D0883160313CE000A128A116027AB
:100318000A128A11831603134C0883120317B400B8
:10032800831603134D0883120317B50083160313AE
:100338004E0883120317B600340883160313A0006F
:1003480083120317350883160313A10083120317BA
:10035800360883160313A2000A128A11D2260A123B
:100368008A1183160313200883160317A50025088E
:1003780083120317DF005F0883160317A5002508FB
:1003880083160313BA0055300A128A15F1240A128B
:100398008A1183120317550883160317A500250829
:1003A80083120317C800560883160317A5002508EB
:1003B80083120317C900903083160317A500250878
:1003C80083120317DE005E080A128A151F260A1216
:1003D8008A11831603133C0883120317DB00831664
:1003E80003133D0883120317DC00831603133E082A
:1003F80083120317DD005B0883160313CC008312F6
:1004080003175C0883160313CD00831203175D08D6
:1004180083160313CE000A128A1160270A128A1162
:10042800831603134C0883120317B70083160313AC
:100438004D0883120317B800831603134E0883125E
:100448000317B900370883160313A0008312031794
:10045800380883160313A10083120317390883167B
:100468000313A2000A128A11D2260A128A118316CD
:100478000313200883160317A50025088312031702
:10048800DF005F0883160317A500250883160313EA
:10049800BA0055300A128A15F1240A128A118312F9
:1004A8000317550883160317A50025088312031799
:1004B800CA00560883160317A500250883120317D8
:1004C800CB00983083160317A5002508831203175D
:1004D800DE005E080A128A151F260A128A11831680
:1004E80003133C0883120317DB00831603133D082C
:1004F80083120317DC00831603133E0883120317C5
:10050800DD005B0883160313CC00831203175C0815
:1005180083160313CD00831203175D088316031394
:10052800CE000A128A1160270A128A118316031351
:100538004C0883120317BA00831603134D0883125D
:100548000317BB00831603134E0883120317BC005E
:100558003A0883160313A000831203173B08831677
:100568000313A100831203173C0883160313A20088
:100578000A128A11D2260A128A1183160313200836
:1005880083160317A500250883120317DF005F08E9
:1005980083160317A500250883160313BA005530E0
:1005A8000A128A15F1240A128A11831203175508B0
:1005B80083160317A500250883120317CC005608D5
:1005C80083160317A500250883120317CD00A8304A
:1005D80083160317A500250883120317DE005E089B
:1005E8000A128A151F260A128A11831603133C0859
:1005F80083120317DB00831603133D0883120317C6
:10060800DC00831603133E0883120317DD005B0822
:1006180083160313CC00831203175C088316031395
:10062800CD00831203175D0883160313CE000A1248
:100638008A1160270A128A11831603134C08831241
:100648000317BD00831603134D0883120317BE005A
:10065800831603134E0883120317BF003D08831641
:100668000313A000831203173E0883160313A10087
:10067800831203173F0883160313A2000A128A1174
:10068800D2260A128A118316031320088316031729
:10069800A500250883120317DF005F0883160317D8
:1006A800A500250883160313BA0055300A128A15C7
:1006B800F1240A128A1183120317550883160317A7
:1006C800A500250883120317CE00560883160317C2
:1006D800A500250883120317CF00B030831603172F
:1006E800A500250883120317DE005E080A128A1582
:1006F8001F260A128A11831603133C088312031754
:10070800DB00831603133D0883120317DC008316EE
:1007180003133E0883120317DD005B0883160313D7
:10072800CC00831203175C0883160313CD008312D1
:1007380003175D0883160313CE000A128A11602777
:100748000A128A11831603134C0883120317C00078
:10075800831603134D0883120317C100831603136E
:100768004E0883120317C200400883160313A00023
:1007780083120317410883160313A100831203177A
:10078800420883160313A2000A128A11D2260A12FB
:100798008A1183160313200883160317A50025085A
:1007A80083120317DF005F0883160317A5002508C7
:1007B80083160313BA0055300A128A15F1240A1257
:1007C8008A1183120317550883160317A5002508F5
:1007D80083120317D000560883160317A5002508AF
:1007E80083120317D100D2019D2C563083160317AC
:1007F800A500250883120317C500B930831603170F
:10080800A500250883120317DE005E080A128A1560
:100818001F260A128A11831603133C088312031732
:10082800DB00831603133D0883120317DC008316CD
:1008380003133E0883120317DD00003083160313E9
:10084800AC002030AD004130AE00831203175B08C6
:1008580083160313AF00831203175C088316031370
:10086800B000831203175D0883160313B1000A1240
:100878008A1147250A128A11831603132C0883123A
:100888000317AE00831603132D0883120317AF0056
:10089800831603132E0883120317B0002E0883163D
:1008A8000313A000831203172F0883160313A10054
:1008B80083120317300883160313A2000A128A1141
:1008C800D2260A128A1183160313200883160317E7
:1008D800A500250883120317DF005F088316031796
:1008E800A500250883160313BA0055300A128A1585
:1008F800F1240A128A118312031755088316031765
:10090800A500250883120317C60056088316031787
:10091800A500250883120317C700C8019D2C831260
:1009280003175408003A0319A728013A0319F92BA9
:100938009D2C5408031DA32CD401D40AA42CD40143
:10094800453083160313A1000130A2000A128A154C
:1009580093230A128A110D300A128A153A210A12B3
:100968008A110A300A128A153A210A128A110430A9
:1009780083160313A1008030A2000A128A1593235C
:100988000A128A118312031386170330831603177A
:10099800A7008A30A6005630A500A50BD12CA60BBF
:1009A800D12CA70BD12CD82C831203138613033018
:1009B80083160317A7008A30A6005630A500A50B9A
:1009C800E32CA60BE32CA70BE32CEA2C83160317C6
:1009D80029080319EA2C1030A500250883160313EB
:1009E800A200443083160317A600260883160313B3
:1009F800A30043300A128A1576240A128A11831238
:100A0800031710080A128A153A210A128A1183124A
:100A1800031711080A128A153A210A128A1102309C
:100A2800831203171106031D54280D30831603176C
:100A3800A700AF30A600C130A500A50B212DA60B3D
:100A4800212DA70B212D00000F3083160317A500B9
:100A5800250883160313B200B301B30A45300A12FE
:100A68008A15D5260A128A11103083160317A50095
:100A7800250883160313A00002300A128A15542190
:100A88000A128A115428831603132C08B2002D0861
:100A9800B3002E08B4000310330D340DB50035082B
:100AA800B6003608031D5F2D0030AC000030AD00E5
:100AB8000030AE0008002F08B2003008B30031083B
:100AC800B4000310330D340DB5003508BB003B08E6
:100AD800031D752D0030AC000030AD000030AE00B5
:100AE80008003B087B3EB2003208B6072C08B2006B
:100AF8002D08B3002E08B40010300310B40CB30C4A
:100B0800B20CFF3E031D812D3208B5003508BB002D
:100B18002F08B2003008B3003108B40010300310B9
:100B2800B40CB30CB20CFF3E031D932D3208B50074
:100B38003508BB068030B2003208BB05AD17B017C8
:100B4800FF30AF05FF30B0050030B1050030B70009
:100B58000030B8000030B9000730B2003208BA00DF
:100B68002C1CC42D2F08B707300803110318300AAE
:100B7800031DB807310803110318310A031DB9070B
:100B880001300310AE0CAD0CAC0CFF3E031DC52D9F
:100B980001300310AF0DB00DB10DFF3E031DCD2D7B
:100BA8000130BA02031DB42D0930B2003208BA0070
:100BB8002C1CEC2D2F08B707300803110318300A36
:100BC800031DB807310803110318310A031DB907BB
:100BD80001300310AE0CAD0CAC0CFF3E031DED2D27
:100BE80001300310B90CB80CB70CFF3E031DF52DEE
:100BF8000130BA02031DDC2D3708A0003808A10017
:100C08003908A2003608B2003208A3003B08B30036
:100C18003308A4000A128A159227831603132008A2
:100C2800AC002108AD002208AE00080083160313AB
:100C38003F08C2004008C3004108C4000310430D28
:100C4800440DC5004508CA004A08031D322E00306D
:100C5800BC000030BD000030BE0008003C08C200E7
:100C68003D08C3003E08C4000310430D440DC500F1
:100C78004508CB004B08031D482E0030BC0000304F
:100C8800BD000030BE0008000030C7000030C800BA
:100C98000030C90089304B07C2004208CA023F0829
:100CA800C2004008C3004108C40010300310C40C3F
:100CB800C30CC20CFF3E031D5A2E4208C50045084E
:100CC800CB003C08C2003D08C3003E08C4001030F9
:100CD8000310C40CC30CC20CFF3E031D6C2E42084B
:100CE800C5004508CB068030C2004208CB05C017B6
:100CF800FF30BF05FF30C0050030C105BD17FF300C
:100D0800BC05FF30BD050030BE051830C2004208E2
:100D1800C60001300310C70DC80DC90DFF3E031DE5
:100D28008E2E3E084102031D9F2E3D084002031DE2
:100D38009F2E3C083F02031CAC2E3C08BF023D0816
:100D4800031C3D0FC0023E08031C3E0AC1024714A3
:100D580001300310BF0DC00DC10DFF3E031DAD2EA8
:100D68000130C602031D8D2E4708A0004808A100C7
:100D78004908A2004A08C2004208A3004B08C30061
:100D88004308A4000A128A15922783160313200821
:100D9800BC002108BD002208BE000800831603130A
:100DA8002008A4002108A5002208A6000310250D8C
:100DB800260DA7002708AD002D08031DEC2E0030D6
:100DC800A3000030A2000030A1000030A0000800FD
:100DD8002008A4002108A5002208A6001730031047
:100DE800A60CA50CA40CFF3E031DF32E2408A70097
:100DF8002708A800A117FF30A005FF30A105003083
:100E0800A2052008A9002108AA002208AB00AC010D
:100E18008E30AD02AD1F2E2F2D08803A8F3E03185D
:100E28001E2F0030A3000030A2000030A1000030C7
:100E3800A000080001300310AC0CAB0CAA0CA90CE4
:100E4800FF3E031D1F2F0130A4002408AD0703191E
:100E5800492F1E2F18302D02031C462F0030A300E7
:100E68000030A2000030A1000030A00008000130CE
:100E7800A4000310A90DAA0DAB0DAC0DA40B3D2FBA
:100E88000130AD022D08031D3B2F28080319572FE9
:100E9800A909AA09AB09AC09A90A0319AA0A0319DD
:100EA800AB0A0319AC0A2C08A3002B08A2002A08D5
:100EB800A1002908A0000800C83083160313BC004D
:100EC8002F30BD004630BE002430AC007430AD0079
:100ED8004930AE004C08AF004D08B0004E08B100D4
:100EE8000A128A1147250A128A11831603132C083D
:100EF800BF002D08C0002E08C1000A128A111A2648
:100F08000A128A11831603133C0883160317A200DA
:100F1800831603133D0883160317A30083160313D0
:100F28003E0883160317A400003083160313BC0081
:100F38008030BD004030BE00831603172208831698
:100F48000313BF0083160317230883160313C00077
:100F580083160317240883160313C1000A128A1183
:100F68001A26831603133C08831603179F0083165B
:100F780003133D0883160317A000831603133E08C6
:100F880083160317A1001F0883160313CC008316CA
:100F98000317200883160313CD00831603172108AF
:100FA80083160313CE00080083160313A20020083B
:100FB800031908005008D13E840083138001800A79
:100FC8000130A1002108D0072208840083170008F7
:100FD800A1005008D13E840021088313800001300D
:100FE800A1002108A2070130A1002108D007013083
:040FF800A002DB2F49
:10100000FF1B0A2883137F1883170008840A03191B
:10101000FF0A080008308A000408840A82070034A6
:10102000FF340034033453346C3461347634653423
:101030002034503472346F346734723461346D3418
:1010400020345334743461347234743421340D34A4
:041050000A3400342A
:10124A0064008001840A040603190034040626296E
:10125A007C080319352901300A128A15A2210800CF
:10126A0000300A128A15A221080083160313A0006F
:10127A0083120C1E3D2983160313200883120313BD
:10128A009900080083160313071387178130990002
:10129A0024309800903083120313980008008316B4
:1012AA000313A2002208A1002108CF002008A100F0
:1012BA002108EF00FC01FC0A0800831603138501CC
:1012CA00860187018801890183120313850186013A
:1012DA008701880189010800613462346334643407
:1012EA00653466346734683469346A346B346C3410
:1012FA006D3400340034F10083160313141C812961
:10130A00831203131308F000710884007008831312
:10131A008000FF30930008007E088A007F08820060
:10132A0091210A128A158000840A04087D0603198D
:10133A000034FF0A0319FE0A9529F2007208831283
:10134A000313930083160313141CA7298312031390
:10135A001308F0007008F100FF30930008008316AC
:10136A000313A300A201231CBE292008A1002108FF
:10137A00A2070310A00D0310A30C2308031DB8290C
:10138A0022080800831603132808A0002908A100D0
:10139A00A2018E30AB002B08A300A4010A128A1501
:1013AA009227831603132008A8002108A9002208FF
:1013BA00AA00080083160313CF01D001F1011E30E1
:1013CA0071020318F5297108D13E84008313800144
:1013DA000130F0007008F1071E307102031CE82981
:1013EA0083160313EF01080083120313C201C3011A
:1013FA0083160313A1011E3021020318112A2108A2
:10140A00443E8400831380010130A0002008A10714
:10141A001E302102031C042A83120313E20108006E
:10142A0083160313A401A501201C212A2208A4075C
:10143A000318A50A2308A50701300310A20DA30D5E
:10144A00FF3E031D222A01300310A10CA00CFF3E0F
:10145A00031D292A20082104031D192A2508A10091
:10146A002408A000080083160313A7002708840095
:10147A0083170008A300840A0008A400840A00084D
:10148A00A5000430A10020088400210883138000ED
:10149A00A80104302802031808002808A33E840083
:1014AA000008A1002808013E2007A20022088400A3
:1014BA00210880000130A1002108A8074E2A8316BE
:1014CA000313A4000230A10020088400210883131A
:1014DA0080002408840083170008A100840A0008F9
:1014EA00A2002208A300200A840023088313800094
:1014FA00013084000A128A150A20A10024088400F7
:10150A00831700082105A2002008023E8400220851
:10151A00831380000800831603134F080A128A15E2
:10152A00A2210A128A158316031350080A128A1571
:10153A00A2210A128A15F4018316031350087402B1
:10154A000318B62A7408D13E8400831300080A12CD
:10155A008A15A2210A128A150130F3007308F407CA
:10156A00A12A6F080A128A15A2210A128A150A12DA
:10157A008A15DF21FC01080083160313A0008715D2
:10158A00071687128516831203131F108316031377
:10159A009F111F159F1483120313941283160313AA
:1015AA00941383120313141283160313141383124E
:1015BA00031394111415941014108316031320089E
:1015CA00031DEF2A831203138C11831603138C1540
:1015DA000B178B1783120313941608008316031331
:1015EA00B000290803190800AB30AA002A08A00095
:1015FA0030080A128A1538220A128A15033083160D
:10160A000313AA002A08B007B101053031020318F2
:10161A00252B3108AB3E840083130008AA0050082A
:10162A00D13E84002A0880000130AA002A08D00787
:10163A000130AA002A08B10705303102031C0E2B1B
:10164A000130A902F62A83160313AA0025080319F2
:10165A000800A730A6002608A0002A080A128A1540
:10166A0064220A128A15023083160313A60026087A
:10167A00AA07AB0103302B0203185A2B2B08A73EEB
:10168A00840083130008A6005008D13E840026086F
:10169A0080000130A6002608D0070130A6002608DF
:1016AA00AB0703302B02031C432B0130A5022B2B63
:1016BA00F2007208840083130008F0007008831295
:1016CA000313C2000130F0007008F20772088400A8
:1016DA000008F0007008C3000130F0007008F2073B
:1016EA00F1014308710203188C2B72088400000868
:1016FA00F0007108443E8400700880000130F00058
:10170A007008F2070130F0007008F107762B7208B2
:10171A0084000008F0007008E20008008316031332
:10172A00220883120313FF0083160313210884007F
:10173A00831203130A128A1500200A128A15003A24
:10174A000319C42B83160313220883120313FF0001
:10175A008316031321088400831203130A128A15BD
:10176A0000200A128A150A128A153A210A128A15C3
:10177A00013083160313A1070318A20A932B003022
:10178A000A128A153A21080083160313A5002008B5
:10179A00840083130008A100A201250884002108FF
:1017AA008000840A22088000250884000230031081
:1017BA00800D840A800D8403FF3E031DDC2B033059
:1017CA0084000A128A150A200A128A15A100200A20
:1017DA0084000008A20006300310A20CFF3E031D7D
:1017EA00F12B22082105A300A4012508840023085F
:1017FA008004840A2408800408008C1D312C1308F4
:10180A00F6007608FB00FF3093007B300A128A1537
:10181A0080210A128A15232C0A128A15B2240A1266
:10182A008A152E2C0A128A1590220A128A152E2C33
:10183A000A128A152D210A128A152E2C7B08013AC2
:10184A000319112C033A0319172C013A03191D2CF9
:10185A002E2C831203138C117A08FF0079088A0050
:10186A0078088400770E8300FE0E7E0E0900831628
:10187A000313B8006430A0000030A1003808B50096
:10188A00B6013508A2003608A3000A128A1579257E
:10189A000A128A15831603132008B7003708B900FD
:1018AA003130B50033088400831300083407B600CA
:1018BA00360884003508831780000130B5003308E4
:1018CA0084003508831380073308B5003508A9005A
:1018DA003408B6003608AA0039080A128A153027D1
:1018EA00080083160313A500831203134208831604
:1018FA000313A40025088400240883178000A60186
:10190A008312031343088316031326020318A12C18
:10191A002608443E840083130008A4002208840099
:10192A002408831780000130A4002408A20701308C
:10193A00A4002408A607852C8312031343088316E0
:10194A000313A40023088400240880000A128A15BD
:10195A00F92183160317A901080083120313C10191
:10196A00023041020318D62C4108203E0A128A1579
:10197A0080210A128A150130F300730883120313B7
:10198A00C107B52C831203134108203E0A128A1597
:10199A0080210A128A150130F30073088312031397
:1019AA00C1072108023EF300003003180130F40099
:1019BA007408803AF50080307502031DE62C410850
:1019CA0073020318C72C20300A128A155D23831666
:1019DA000317A901A90A080083160313BE00BD0153
:1019EA0064303A02031C0A2D80303A0203180A2D89
:1019FA00BD30BB003B08B3003E08BC003C08B40045
:101A0A003A080A128A153C2408000A30831603137E
:101A1A003A02031C212D64303A020318212DBD30ED
:101A2A00BB003B08A9003E08BC003C08AA003A08D3
:101A3A000A128A15302708000A30831603133A025D
:101A4A0003180800BD30BB003B08A0003E08BC00DC
:101A5A003C08A1003A080A128A15C625080083160E
:101A6A000313A4002408A2002208A5003030A20013
:101A7A002208A800A601A7012708803AA200803000
:101A8A002202031D4A2D250826020318592D01306A
:101A9A0083160313A2002208A8070130A607031819
:101AAA00A70A0030A707412D831603132808A200AE
:101ABA0020088400831300082107A3002308840058
:101ACA002208831780000130A2002008840022081F
:101ADA00831380072008840000082107A200220837
:101AEA00840083178001080083160313A601A31F2D
:101AFA00852DA209A309A20A0319A30AA601A60A07
:101B0A00A11F8C2DA009A109A00A0319A10A200866
:101B1A0021040319B92DA501A50AA11BA02D013085
:101B2A000310A00DA10DFF3E031D952D0130A40049
:101B3A002408A507922D21082302031DA62D20089B
:101B4A002202031CAE2D2008A2022108031CA303B3
:101B5A00A30201300310A10CA00CFF3E031DAF2D00
:101B6A000130A502031DA02D26080319C12DA209C3
:101B7A00A309A20A0319A30A2308A1002208A000A4
:101B8A00080083160313A4002408A2002208A50053
:101B9A003030A2002208A8003030A20020088400B9
:101BAA00831300082107A30023088400220883174F
:101BBA0080000130A20020088400220883138007D5
:101BCA00A601A7012708803AA20080302202031D3D
:101BDA00F02D250826020318FF2D01308316031362
:101BEA00A2002208A8070130A6070318A70A003096
:101BFA00A707E72D831603132808A20020088400EC
:101C0A00831300082107A3002308840022088317EE
:101C1A0080000130A2002008840022088313800774
:101C2A002008840000082107A200220884008317E4
:101C3A008001080083160313C000C601C7010030E3
:101C4A00C1000030C2000030C300400883120313F1
:101C5A009F001F14313083160313BF00BF0B332EAE
:101C6A00362E831203131F151F19392E1E088316C9
:101C7A000313BF003F08C4001E08BF003F08C50089
:101C8A00C430BF003F08A000C6300A128A15C92313
:101C9A000A128A15283083160313AC00A030AD004F
:101CAA003B30AE004708A9004608A8000A128A1568
:101CBA00C7210A128A15831603132808AF002908B8
:101CCA00B0002A08B1000A128A11472583160313A5
:101CDA002C08C1002D08C2002E08C3004108BC0010
:101CEA004208BD004308BE00080083160313A6017C
:101CFA00A11F862EA009A109A00A0319A10AA601FB
:101D0A00A60AA31F912EA209A309A20A0319A30ACC
:101D1A000130A4002408A606A701A801200821046E
:101D2A000319C82EA501A50AA11BA72E013003106D
:101D3A00A00DA10DFF3E031D9C2E0130A400240816
:101D4A00A507992E01300310A70DA80DFF3E031D0C
:101D5A00A82E21082302031DB42E20082202031CE8
:101D6A00BD2E2008A2022108031CA303A3022714E4
:101D7A0001300310A10CA00CFF3E031DBE2E013042
:101D8A00A502031DA72E26080319D02EA709A80904
:101D9A00A70A0319A80A2808A1002708A000080012
:101DAA0083160313B9003308013EA000003003185C
:101DBA000130A1003208B400B5013408A200350888
:101DCA00A3000A128A1515220A128A15831603130A
:101DDA0050082007B60021080318210AB700B609DF
:101DEA00B709B60A0319B70A1E30360737080318A7
:101DFA00370A003EB800B81B0800222F3208B40088
:101E0A003408A00039080A128A11D8270800831654
:101E1A0003133208B4003408A50039080A128A15D7
:101E2A0028230800831603133208B4003408A900D3
:101E3A0039080A128A15F322080083160313330895
:101E4A00013A0319032F033A03190C2F063A03190F
:101E5A00172F2F2F080083160313B2000A30A00091
:101E6A000030A1003208AB00AC012B08A2002C08FC
:101E7A00A3000A128A157A260A128A1583160313F0
:101E8A002008AD002D08AE000A30A0000030A100E5
:101E9A003208AB00AC012B08A2002C08A3000A12DE
:101EAA008A1579250A128A15831603132008AD00AC
:101EBA002D08AF003030AB002B08B000B1012E085E
:101ECA0031020318712F0130AB002B08B007013023
:101EDA00AB002B08B107642F3008AB002908840037
:101EEA00831300082A07AC002C0884002B088317E8
:101EFA0080000130AB00290884002B088313800777
:101F0A002908AB002B08A0002A08AC002C08A10065
:101F1A002F080A128A15342508008316031323088A
:101F2A0003199C2F220821042004031DAF2F00301F
:101F3A00A0000030A1000030A20008000130A50076
:101F4A002508A30701300310A20CA10CA00CFF3E28
:101F5A00031DA82FFE3022050319CA2FA32F013013
:101F6A00A5002508A3070130A00700300318013097
:101F7A00A107003003180130A20701300310A20C98
:101F8A00A10CA00CFF3E031DC32FFF30220503192D
:101F9A00D92FB42F0130A30201300310A00DA10DD7
:101FAA00A20DFF3E031DD22FA11BDF2F02302302F9
:101FBA000318CF2F2318E72FFF30A0057F30A10584
:101FCA00FF30A2050310A30C2308A500A601A70150
:101FDA0010300310A50DA60DA70DFF3E031DEE2F11
:101FEA002508A0042608A1042708A2042408031926
:061FFA000800A217080018
:02400E0072FF3F
:00000001FF
