:060000000A128A11F22F22
:1000120083120313B000AF0164302C02031C2228A8
:1000220080302C02031822282F30AD002D08A500A5
:100032003008AE002E08A6002C080A128A15852365
:1000420008000A30831203132C02031C392864307F
:100052002C02031839282F30AD002D08F900300882
:10006200AE002E08FA002C080A128A153D26080056
:100072000A30831203132C02031808002F30AD003C
:100082002D08F0003008AE002E08F1002C080A12EC
:100092008A15312408007008F4007108F50072080E
:1000A200F6000310750D760DF7007708FD007D0848
:1000B200031D64280030F3000030F2000030F1002C
:1000C2000030F00008007008F4007108F5007208B2
:1000D200F60017300310F60CF50CF40CFF3E031D6E
:1000E2006B287408F7007708F800F117FF30F00565
:1000F200FF30F1050030F2057008F9007108FA00CE
:100102007208FB00FC018E30FD02FD1FA6287D084F
:10011200803A8F3E031896280030F3000030F20038
:100122000030F1000030F000080001300310FC0C38
:10013200FB0CFA0CF90CFF3E031D97280130F4006A
:100142007408FD070319C128962818307D02031C84
:10015200BE280030F3000030F2000030F100003021
:10016200F00008000130F4000310F90DFA0DFB0D48
:10017200FC0DF40BB5280130FD027D08031DB328E8
:1001820078080319CF28F909FA09FB09FC09F90AC9
:100192000319FA0A0319FB0A0319FC0A7C08F30083
:1001A2007B08F2007A08F1007908F0000800F900F3
:1001B2007408F60076088316031790007508F60097
:1001C2007608B000AA30F6007608F00079080A1224
:1001D2008A15BD230A128A114130F700EE30F6006B
:1001E200F60BF128F70BF1280000F001F00A79086C
:1001F2000A128A15BD230A128A114130F700EE3025
:10020200F600F60B0229F70B0229000083160317EA
:100212001008F6007608F00079080A128A15BD2344
:100222000A128A114130F700EE30F600F60B172958
:10023200F70B17290000831603171108F60076083A
:10024200F00079080A128A15BD230A128A11413078
:10025200F700EE30F600F60B2C29F70B2C290000E4
:10026200F801831603171108780203185429780835
:10027200923E840083170008F6007608F0007908A1
:100282000A128A15BD230A128A114130F700EE3094
:10029200F600F60B4A29F70B4A2900000130F60056
:1002A2007608F80732293008F6007608F000790857
:1002B2000A128A15BD230A128A114130F700EE3064
:1002C200F600F60B6229F70B622900000A128A1562
:1002D200FB210800831203134D08D0004E08D10001
:1002E2004F08D2000310510D520DD3005308D8000D
:1002F2005808031D83290030CA000030CB000030AB
:10030200CC0008004A08D0004B08D1004C08D200AB
:100312000310510D520DD3005308D9005908031D83
:1003220099290030CA000030CB000030CC00080010
:100332000030D5000030D6000030D7008930590790
:10034200D0005008D8024D08D0004E08D1004F0806
:10035200D20010300310D20CD10CD00CFF3E031D82
:10036200AB295008D3005308D9004A08D0004B08E3
:10037200D1004C08D20010300310D20CD10CD00C9A
:10038200FF3E031DBD295008D3005308D906803013
:10039200D0005008D905CE17FF30CD05FF30CE056D
:1003A2000030CF05CB17FF30CA05FF30CB05003038
:1003B200CC051830D0005008D40001300310D50D00
:1003C200D60DD70DFF3E031DDF294C084F02031D3A
:1003D200F0294B084E02031DF0294A084D02031C66
:1003E200FD294A08CD024B08031C4B0FCE024C08D4
:1003F200031C4C0ACF02551401300310CD0DCE0D53
:10040200CF0DFF3E031DFE290130D402031DDE295C
:100412005508F0005608F1005708F2005808D000BD
:100422005008F3005908D1005108F4000A128A1545
:100432009D26700883120313CA007108CB0072084C
:10044200CC000800831203132008A6002108A7008D
:100452002208A8000310270D280DA9002908AA00C8
:100462002A08031D3B2A0030A0000030A100003002
:10047200A20008002308A6002408A7002508A80057
:100482000310270D280DA9002908AF002F08031D0E
:10049200512A0030A0000030A1000030A200080064
:1004A2002F087B3EA6002608AA072008A6002108DE
:1004B200A7002208A80010300310A80CA70CA60C55
:1004C200FF3E031D5D2A2608A9002908AF00230864
:1004D200A6002408A7002508A80010300310A80CC5
:1004E200A70CA60CFF3E031D6F2A2608A9002908A7
:1004F200AF068030A6002608AF05A117A417FF306B
:10050200A305FF30A4050030A5050030AB00003084
:10051200AC000030AD000730A6002608AE00201C5B
:10052200A02A2308AB07240803110318240A031D79
:10053200AC07250803110318250A031DAD07013076
:100542000310A20CA10CA00CFF3E031DA12A013036
:100552000310A30DA40DA50DFF3E031DA92A013012
:10056200AE02031D902A0930A6002608AE00201C08
:10057200C82A2308AB07240803110318240A031D01
:10058200AC07250803110318250A031DAD07013026
:100592000310A20CA10CA00CFF3E031DC92A0130BE
:1005A2000310AD0CAC0CAB0CFF3E031DD12A013085
:1005B200AE02031DB82A2B08F0002C08F1002D080A
:1005C200F2002A08A6002608F3002F08A700270831
:1005D200F4000A128A159D26700883120313A000E4
:1005E2007108A1007208A2000800831203133D08DB
:1005F200C3003E08C4003F08C5000310440D450D6A
:10060200C6004608C9004008C3004108C4004208A9
:10061200C5000310440D450DC6004608C800490830
:1006220003191F2B480849020318262B4903FF3AD6
:100632004807C30019304302031C262B4008BD00A3
:100642004108BE004208BF0008004808031908001C
:10065200490848020318352B4803FF3A4907C300EB
:1006620019304302031808000630C3004308C700CC
:10067200BF1BC717C21B4717BE17FF30BD05FF3090
:10068200BE050030BF05C117FF30C005FF30C105F0
:100692000030C205480849020318752B01300310C7
:1006A200C00DC10DC20DFF3E031D502B0130C8020B
:1006B200480849060319702B0130C7024708073959
:1006C2000319702B4F2B01300310BF0CBE0CBD0C55
:1006D200FF3E031D652B0130C3004308C9074908CB
:1006E200480603199E2B642B4908480203189E2BC7
:1006F20001300310BD0DBE0DBF0DFF3E031D7A2B51
:100702000130C9024808490603199A2B0130C70271
:100712004708073903199A2B792B01300310C20CB1
:10072200C10CC00CFF3E031D8F2B0130C3004308D8
:10073200C80749084806031D8E2BC71FB02BFF3080
:10074200BD06FF30BE06FF30BF060130BD070030D8
:1007520003180130BE07003003180130BF07471FDE
:10076200C22BFF30C006FF30C106FF30C206013087
:10077200C007003003180130C107003003180130F0
:10078200C207C7013D08C0073E08031103183E0A0D
:10079200031DC1073F08031103183F0A031DC207C7
:1007A200C21FE52BFF30C006FF30C106FF30C20674
:1007B2000130C007003003180130C10700300318B0
:1007C2000130C207C701C70A4008F0004108F10022
:1007D2004208F2004908C3004308F3004708C40076
:1007E2004408F4000A128A159D2670088312031326
:1007F200BD007108BE007208BF0008008316031313
:1008020086130A128A15AD210A128A110A128A1552
:1008120095210A128A118312031386170D30EA00FA
:10082200AF30E900C130E800E80B152CE90B152CBC
:10083200EA0B152C00008312031386130D30EA0015
:10084200AF30E900C130E800E80B252CE90B252C7C
:10085200EA0B252C00000A128A15A0210A128A111D
:100862000A128A1515220A128A1154300A128A159E
:100872007B210A128A110A128A1509270A128A1181
:10088200831203135D0883160313DC008312031320
:100892005E0883160313DD00831203135F088316B9
:1008A2000313DE005C08F0005D08F1005E08F20050
:1008B2000A128A114C200A128A1170088312031339
:1008C200E800680883160313E40064088312031324
:1008D200E8006808AC00DF300A128A1109200A1207
:1008E2008A1183160313E801053068020318982C55
:1008F2006808DF3E8400831300080A128A157B21F0
:100902000A128A11831603136808DF3E84008313D8
:1009120000080319982C013083120313E8006808B9
:1009220083160313E80705306802031C792C0D3087
:100932000A128A157B210A128A110A300A128A15B2
:100942007B210A128A1122300A128A1534220A12D3
:100952008A110D3083120313EA00AF30E900C1306F
:10096200E800E80BB22CE90BB22CEA0BB22C000027
:10097200023083120313E800680883160313E600AB
:10098200FC01FC0AFD01FD0AE6300A128A15E02587
:100992000A128A11033083120313E8006808F40074
:1009A2001030E9006908F50003300A128A11D820D4
:1009B2000A128A1103300A128A1575270A128A113D
:1009C2008312031386170630EA001330E900B130B0
:1009D200E800E80BEA2CE90BEA2CEA0BEA2CF12CF2
:1009E2008312031386130630EA001330E900B13094
:1009F200E800E80BFA2CE90BFA2CEA0BFA2C012D91
:100A02008316031369080319012DBE3083120313E1
:100A1200E8006808F200E730E9006908F300E53011
:100A22000A128A15EB220A128A1183160313E801AD
:100A3200670868020318302D6808BE3E84008313DD
:100A420000080A128A157B210A128A1101308312C8
:100A52000313E800680883160313E807192D3730DB
:100A62000A128A1534220A128A11022C11308316B4
:100A72000313BB008030BC003B30BD000530A60034
:100A82001B30A700B530A800003083120313BD004D
:100A9200A030BE004030BF000A128A1537250A1264
:100AA2008A11831203133008BA003108BB003208DE
:100AB200BC000A128A158B210A128A1183120313AF
:100AC2003A08C0003B08C1003C08C2000A128A1161
:100AD200F6220A128A11831203133D08CA003E0845
:100AE200CB003F08CC000A128A1537250A128A1158
:100AF200831203133008CD003108CE003208CF0034
:100B02000A128A116B210A128A11831203134A08EC
:100B120083160313A900831203134B0883160313CE
:100B2200AA00831203134C0883160313AB00C030D0
:100B320083120313A0007330A1004530A200831674
:100B42000313290883120313A300831603132A082D
:100B520083120313A400831603132B0883120313B7
:100B6200A5000A128A1123220A128A118312031380
:100B7200200883160313B20083120313210883167D
:100B82000313B30083120313220883160313B40062
:100B9200003083120313BD008030BE00BF30BF009F
:100BA2000030CA00C830CB004230CC008316031399
:100BB200320883120313CD00831603133308831202
:100BC2000313CE0083160313340883120313CF00DA
:100BD2000A128A116B210A128A11831203134A081C
:100BE200C0004B08C1004C08C2000A128A11F6224A
:100BF2000A128A11831203133D0883160313B500E8
:100C0200831203133E0883160313B60083120313E1
:100C12003F0883160313B7003B0883120313CA006D
:100C2200831603133C0883120313CB0083160313AA
:100C32003D0883120313CC00831603133508831275
:100C42000313CD0083160313360883120313CE0059
:100C520083160313370883120313CF000A128A1173
:100C62006B210A128A11831203134A088316031393
:100C7200B800831203134B0883160313B9008312BF
:100C820003134C0883160313BA003B0883120313A1
:100C9200BD00831603133C0883120313BE008316A0
:100CA20003133D0883120313BF00831603132608A0
:100CB20083120313A000831603132708831203135E
:100CC200A10083160313280883120313A2008316BC
:100CD2000313380883120313A3008316031339087E
:100CE20083120313A400831603133A088312031317
:100CF200A5000A128A1123220A128A1183120313EF
:100D02002008C0002108C1002208C2000A128A116C
:100D1200F6220A128A11831203133D088316031363
:100D2200AC00831203133E0883160313AD00831233
:100D320003133F0883160313AE000030831203131C
:100D4200BD008030BE003F30BF0083160313380859
:100D520083120313A00083160313390883120313AB
:100D6200A100831603133A0883120313A200831609
:100D720003132C0883120313A300831603132D08F5
:100D820083120313A400831603132E088312031382
:100D9200A5000A128A1123220A128A11831203134E
:100DA2002008C0002108C1002208C2000A128A11CC
:100DB200F6220A128A11831203133D0883160313C3
:100DC200AF00831203133E0883160313B00083128D
:100DD20003133F0883160313B10000308312031379
:100DE200A000C830A1004230A200831603132F08CE
:100DF20083120313A3008316031330088312031311
:100E0200A40083160313310883120313A5000A12E8
:100E12008A1123220A128A118312031320088316CD
:100E22000313A00083120313210883160313A100E6
:100E320083120313220883160313A20020088312CD
:100E42000313CD0083160313210883120313CE006C
:100E520083160313220883120313CF000030CA0043
:100E6200C830CB004230CC000A128A116B210A1220
:100E72008A11831203134A08BA004B08BB004C08BC
:100E8200BC000A128A158B210A128A1183120313DB
:100E92003A08BD003B08BE003C08BF000030CA0053
:100EA200C830CB004230CC008316031332088312C1
:100EB2000313CD0083160313330883120313CE00EA
:100EC20083160313340883120313CF000A128A1104
:100ED2006B210A128A11831203134A08C0004B08BD
:100EE200C1004C08C2000A128A11F6220A128A11A3
:100EF200831203133D0883160313B50083120313F1
:100F02003E0883160313B600831203133F088316A9
:100F12000313B700380883120313BD0083160313AB
:100F2200390883120313BE00831603133A0883128F
:100F32000313BF00831603133B0883120313CA0073
:100F4200831603133C0883120313CB008316031387
:100F52003D0883120313CC00831603133508831252
:100F62000313CD0083160313360883120313CE0036
:100F720083160313370883120313CF000A128A1150
:100F82006B210A128A11831203134A08C0004B080C
:100F9200C1004C08C2000A128A11F62283120313FE
:100FA2003D0883160313A300831203133E0883161E
:100FB2000313A400831203133F0883160313A5002F
:100FC200230883120313DA008316031324088312FF
:100FD2000313DB0083160313250883120313DC00BB
:100FE200080083160313E901831790308400D2307E
:100FF2000A128A15832183010A128A11FF2B0830F3
:101002008A000408840A820700346134623463343B
:101012006434653466346734683469346B346C34F0
:101022006D346E346F34703470347134723473349E
:101032007434753476347734783479347A3431349C
:10104200323433343434FF34003403344D346134B5
:1010520073347434653472342034503472346F34DF
:101062006734723461346D342034533474346134EF
:0C1072007234743421340D340A3400341C
:1012F600F000831203130C1E7C2970089900080065
:1013060064008001840A0406031900340406842953
:10131600831203133C083B043A0403190800803087
:10132600BC060800831203130510851183160313E8
:101336000514851501309F00080083160313071353
:101346008717813099002430980090308312031358
:10135600980008008316031385018601870188011A
:10136600890183120313850186018701880189019A
:101376000800F300F201731CC4297008F10071081B
:10138600F2070310F00D0310F30C7308031DBE29BA
:10139600720808007808F0007908F100F2018E3032
:1013A600FB007B08F300F4010A128A159D267008DB
:1013B600F8007108F9007208FA000800831603178E
:1013C600B101B201F1011E3071020318F72971084B
:1013D600B33E8400831780010130F0007008F107E6
:1013E6001E307102031CEA2983160317D101080077
:1013F6008316031790019101F1011E307102031843
:10140600112A7108923E8400831780010130F00092
:101416007008F1071E307102031C042A8316031795
:10142600B0010800831603138711071687120711E8
:101436000710871083120313941283160313941351
:101446008312031314128316031314138312031344
:101456009411141194101410071507148714941678
:101466000800F200720884000A128A1500200A1287
:101476008A15003A0319502A720884000A128A153E
:1014860000200A128A150A128A157B210A128A1569
:101496000130F1007108F207352A00300A128A1568
:1014A6007B210800F401F501701C5F2A7208F4071D
:1014B6000318F50A7308F50701300310F20DF30D52
:1014C600FF3E031D602A01300310F10CF00CFF3EB5
:1014D600031D672A70087104031D572A7508F10059
:1014E6007408F0000800F4000230F100700884006F
:1014F600710880007408840083130008F100840AD0
:101506000008F2007208F300700A84007308800075
:101516001F3084000A128A150020F1007408840026
:1015260000087105F2007008023E8400720880000F
:101536000800F20070080319080083160317110843
:10154600923E840083178001800A0130F100710801
:1015560091077208840083130008F1001108923E77
:1015660084007108831780000130F1007108F207CA
:101576000130F100710891070130F0029D2AF70051
:101586007708840083130008F300840A0008F40037
:10159600840A0008F5000430F10070088400710820
:1015A6008000F80104307802031808007808733EBA
:1015B60084000008F1007808013E7007F200720806
:1015C6008400710880000130F1007108F807D52AFF
:1015D600F500831603173108F400750884007408B3
:1015E60083138000F6013208760203180E2B760864
:1015F600B33E840083170008F40072088400740860
:10160600831380000130F4007408F2070130F400FF
:101616007408F607F62A3208F40073088400740882
:1016260080000A128A15E12183160313E9010800D6
:10163600FA007508031908007730F6007608F000FE
:101646007A080A128A1576220A128A150230F600DC
:101656007608FA07FB0103307B0203184B2B7B0845
:10166600773E84000008F600831603171108923EA1
:1016760084007608831780000130F600760891070B
:101686000130F6007608FB0703307B02031C322B81
:101696000130F5021C2BF500700884008313000846
:1016A600F100F2017508840071088000840A72084E
:1016B60080007508840002300310800D840A800DB6
:1016C6008403FF3E031D5F2B213084000A128A1516
:1016D60000200A128A15F100700A84000008F20040
:1016E60006300310F20CFF3E031D742B72087105C1
:1016F600F300F4017508840073088004840A7408F2
:101706008004080083120313AA006430F00000303E
:10171600F1002A08A700A8012708F2002808F3000C
:101726000A128A15EC240A128A157008831203130A
:10173600A9002908AB003130A700250884008313CF
:1017460000082607A8002808840027088000013022
:10175600A70025088400270880072508A700270872
:10176600F9002608A8002808FA002B080A128A158C
:101776003D260800F300831203131308F1007108D5
:10178600F200CB2B0711D62B0710D62B8710D62BA2
:101796007308013A0319C52B033A0319C72B013AFB
:1017A6000319C92BD62B700893008316031314183C
:1017B600E62BD82B83120715F12B83120714F12B76
:1017C60083128714F12B7308013A0319DD2B033AB0
:1017D6000319E02B013A0319E32BF12B83121308AB
:1017E600F1007108F200080083120313A5007908BE
:1017F600031908002030FA007A08F00025080A12BA
:101806008A15C2220A128A150330FA007A08831250
:101816000313A507A6010530260203182E2C260859
:10182600203E840083130008FA008316031711086C
:10183600923E84007A08831780000130FA007A0805
:1018460091070130FA007A0883120313A6070530C0
:101856002602031C122C0130F902FA2BF40074083C
:10186600F2007208F7003030F2007208F800F50155
:10187600F6017608803AF20080307202031D452C8C
:10188600770875020318522C0130F2007208F80727
:101896000130F5070318F60A0030F6073C2C7808E5
:1018A600F20070088400831300087107F3007308C0
:1018B6008400720880000130F2007008840072080B
:1018C60080077008840000087107F200720884001F
:1018D60080010800F400831203131308F200720853
:1018E600F3007B2C0711862C0710862C8710862C7C
:1018F6007408013A0319752C033A0319772C013A37
:101906000319792C862CFF309300831603131418C1
:10191600962C882C83120715A12C83120714A12C50
:1019260083128714A12C7408013A03198D2C033AEB
:101936000319902C013A0319932CA12C70088400EA
:101946008313711883178312130880000800F900A7
:10195600AA30F5007508F00079080A128A15BD2329
:101966000A128A154130F600EE30F500F50BB92C57
:10197600F60BB92C00000330F5007508F000790865
:101986000A128A15BD230A128A154130F600EE3076
:10199600F500F50BCC2CF60BCC2C00007830F000C3
:1019A6000030F10079080A128A156D240A128A1588
:1019B6000D30F700AF30F600C130F500F50BE12C25
:1019C600F60BE12CF70BE12C00007808031D08004C
:1019D600AB2CF601F31FF62CF209F309F20A0319F0
:1019E600F30AF601F60AF11FFD2CF009F109F00AD7
:1019F6000319F10A7008710403192A2DF501F50A75
:101A0600F11B112D01300310F00DF10DFF3E031DEA
:101A1600062D0130F4007408F507032D71087302D2
:101A2600031D172D70087202031C1F2D7008F20289
:101A36007108031CF303F30201300310F10CF00CE0
:101A4600FF3E031D202D0130F502031D112D7608E2
:101A56000319322DF209F309F20A0319F30A73087E
:101A6600F1007208F000080083120313B801B901EF
:101A76000030B3000030B4000030B50081309F0064
:101A86001F151F19442D1E08FC007C08B60083167E
:101A960003131E08FC007C0883120313B7003630BC
:101AA600FC007C08F00038300A128A154E230A1210
:101AB6008A15283083120313A000A030A1003B3002
:101AC600A2003908F9003808F8000A128A15CD2153
:101AD6000A128A15780883120313A3007908A40052
:101AE6007A08A5000A128A112322831203132008FA
:101AF600B3002108B4002208B5003308B00034084A
:101B0600B1003508B2000800F601F11F912DF00969
:101B1600F109F00A0319F10AF601F60AF31F9C2DE2
:101B2600F209F309F20A0319F30A0130F400740802
:101B3600F606F701F801700871040319D32DF501B3
:101B4600F50AF11BB22D01300310F00DF10DFF3E29
:101B5600031DA72D0130F4007408F507A42D0130EC
:101B66000310F70DF80DFF3E031DB32D7108730228
:101B7600031DBF2D70087202031CC82D7008F202E7
:101B86007108031CF303F302771401300310F10C00
:101B9600F00CFF3E031DC92D0130F502031DB22DC9
:101BA60076080319DB2DF709F809F70A0319F80A6D
:101BB6007808F1007708F000080083120313AC00E0
:101BC6007D08013EF000003003180130F1007C086A
:101BD600A700A8012708F2002808F3000A128A15B0
:101BE60055220A128A1583160317110870078312E5
:101BF6000313A90071080318710AAA00A909AA0902
:101C0600A90A0319AA0A1E3029072A0803182A0A4C
:101C1600003EAB00AB1B0800312E7C088312031379
:101C2600A7002708F0002C080A128A159C22080033
:101C36007C0883120313A7002708F5002C080A1254
:101C46008A151B2308007C0883120313A7002708A4
:101C5600F9002C080A128A15F72308007D08013AB4
:101C66000319102E033A03191B2E063A0319262EC2
:101C76003C2E080083120313A4000A30F000003043
:101C8600F1002408FB00FC017B08F2007C08F3004D
:101C96000A128A1587250A128A157008FD007D0822
:101CA60083120313A0000A30F0000030F10024086C
:101CB600FB00FC017B08F2007C08F3000A128A157F
:101CC600EC240A128A157008FD007D08831203139E
:101CD600A1003030FB007B08A200A30120082302EC
:101CE60003187E2E0130FB007B08A2070130FB00A3
:101CF6007B08A307712E2208FB0079088400831352
:101D060000087A07FC007C0884007B08800001300C
:101D1600FB00790884007B0880077908FB007B08B4
:101D2600F0007A08FC007C08F10021080A128A15E6
:101D36003124080073080319A52E72087104700473
:101D4600031DB82E0030F0000030F1000030F20024
:101D560008000130F5007508F30701300310F20C96
:101D6600F10CF00CFF3E031DB12EFE307205031977
:101D7600D32EAC2E0130F5007508F3070130F007BD
:101D8600003003180130F107003003180130F20764
:101D960001300310F20CF10CF00CFF3E031DCC2EAB
:101DA600FF3072050319E22EBD2E0130F302013019
:101DB6000310F00DF10DF20DFF3E031DDB2EF11B9E
:101DC600E82E023073020318D82E7318F02EFF3057
:101DD600F0057F30F105FF30F2050310F30C7308B0
:101DE600F500F601F70110300310F50DF60DF70DAD
:101DF600FF3E031DF72E7508F0047608F1047708F8
:101E0600F204740803190800F21708000030831260
:101E16000313E5000030E6000030E700E301E401CB
:101E26006408803AFF0081307F02031D1C2F2D308D
:101E360063020318552F0A128A1137250A128A15CA
:101E4600831203135A08E0005B08E1005C08E20015
:101E56006008BD006108BE006208BF006508C000DA
:101E66006608C1006708C2000A128A11F6220A1221
:101E76008A15831203133D08E5003E08E6003F0875
:101E8600E7000130E3070318E40A0030E4076408BA
:101E9600803AFF0081307F02031D532F2D306302ED
:101EA600031C1E2F003083120313CA009630CB008A
:101EB6004330CC006508CD006608CE006708CF0029
:101EC6000A128A116B21831203134A08E5004B0894
:101ED600E6004C08E7006508DD006608DE006708D6
:101EE600DF000800FD0003300A128A15AA240A1230
:101EF6008A15AA30FA007A08F0007D080A128A15B7
:101F0600BD230A128A154130FB00EE30FA00FA0BA7
:101F16008A2FFB0B8A2F00000230FA007A08F000A5
:101F26007D080A128A15BD230A128A154130FB0064
:101F3600EE30FA00FA0B9D2FFB0B9D2F0000B130FF
:101F4600F0000130F1007D080A128A156D240A128C
:101F56008A154130FB00EE30FA00FA0BB02FFB0B6E
:101F6600B02F0000B230F0000130F1007D080A12F7
:101F76008A156D240A128A154130FB00EE30FA00EC
:101F8600FA0BC32FFB0BC32F0000FC0183160317AC
:101F960032087C020318E82F7C08B33EF0000130BB
:101FA600F1007D080A128A156D240A128A1541303D
:101FB600FB00EE30FA00FA0BDE2FFB0BDE2F0000E3
:101FC6000130FA007A08FC07C92FD130F000013041
:101FD600F1007D080A128A156D240A128A1541300D
:101FE600FB00EE30FA00FA0BF62FFB0BF62F000083
:0A1FF60083160313E901E90A08004D
:02400E0072FF3F
:00000001FF
